{
  "contractName": "Crowdsale",
  "abi": [
    {
      "constant": true,
      "inputs": [],
      "name": "tokenReward",
      "outputs": [
        {
          "name": "",
          "type": "address"
        }
      ],
      "payable": false,
      "stateMutability": "view",
      "type": "function"
    },
    {
      "constant": true,
      "inputs": [],
      "name": "queue",
      "outputs": [
        {
          "name": "",
          "type": "address"
        }
      ],
      "payable": false,
      "stateMutability": "view",
      "type": "function"
    },
    {
      "inputs": [],
      "payable": false,
      "stateMutability": "nonpayable",
      "type": "constructor"
    },
    {
      "anonymous": false,
      "inputs": [
        {
          "indexed": false,
          "name": "buyer",
          "type": "address"
        },
        {
          "indexed": false,
          "name": "tokens",
          "type": "uint256"
        }
      ],
      "name": "Purchase",
      "type": "event"
    },
    {
      "anonymous": false,
      "inputs": [
        {
          "indexed": false,
          "name": "addr",
          "type": "address"
        },
        {
          "indexed": false,
          "name": "tokens",
          "type": "uint256"
        }
      ],
      "name": "Refund",
      "type": "event"
    },
    {
      "constant": false,
      "inputs": [
        {
          "name": "_initAmount",
          "type": "uint256"
        },
        {
          "name": "rate",
          "type": "uint256"
        },
        {
          "name": "symbol",
          "type": "string"
        },
        {
          "name": "name",
          "type": "string"
        },
        {
          "name": "decimals",
          "type": "uint256"
        }
      ],
      "name": "SetDetails",
      "outputs": [],
      "payable": false,
      "stateMutability": "nonpayable",
      "type": "function"
    },
    {
      "constant": false,
      "inputs": [
        {
          "name": "amount",
          "type": "uint256"
        }
      ],
      "name": "mint",
      "outputs": [],
      "payable": false,
      "stateMutability": "nonpayable",
      "type": "function"
    },
    {
      "constant": false,
      "inputs": [
        {
          "name": "amount",
          "type": "uint256"
        }
      ],
      "name": "burn",
      "outputs": [],
      "payable": false,
      "stateMutability": "nonpayable",
      "type": "function"
    },
    {
      "constant": false,
      "inputs": [],
      "name": "buyToken",
      "outputs": [
        {
          "name": "amount",
          "type": "uint256"
        }
      ],
      "payable": true,
      "stateMutability": "payable",
      "type": "function"
    },
    {
      "constant": false,
      "inputs": [
        {
          "name": "amount",
          "type": "uint256"
        }
      ],
      "name": "refundToken",
      "outputs": [],
      "payable": false,
      "stateMutability": "nonpayable",
      "type": "function"
    },
    {
      "constant": false,
      "inputs": [
        {
          "name": "cap",
          "type": "uint256"
        }
      ],
      "name": "setTimeCap",
      "outputs": [
        {
          "name": "",
          "type": "bool"
        }
      ],
      "payable": false,
      "stateMutability": "nonpayable",
      "type": "function"
    },
    {
      "constant": false,
      "inputs": [],
      "name": "cap",
      "outputs": [
        {
          "name": "",
          "type": "uint256"
        }
      ],
      "payable": false,
      "stateMutability": "nonpayable",
      "type": "function"
    },
    {
      "constant": false,
      "inputs": [],
      "name": "timeSinceStart",
      "outputs": [
        {
          "name": "",
          "type": "uint256"
        }
      ],
      "payable": false,
      "stateMutability": "nonpayable",
      "type": "function"
    },
    {
      "constant": false,
      "inputs": [],
      "name": "saleComplete",
      "outputs": [
        {
          "name": "",
          "type": "bool"
        }
      ],
      "payable": false,
      "stateMutability": "nonpayable",
      "type": "function"
    },
    {
      "constant": false,
      "inputs": [],
      "name": "receiveFunds",
      "outputs": [
        {
          "name": "",
          "type": "bool"
        }
      ],
      "payable": false,
      "stateMutability": "nonpayable",
      "type": "function"
    }
  ],
  "bytecode": "0x60606040527fffffffffffffffffffffffffffffffffffffffffffffffffffffffffffffffff600555341561003357600080fd5b336000806101000a81548173ffffffffffffffffffffffffffffffffffffffff021916908373ffffffffffffffffffffffffffffffffffffffff16021790555061007b610134565b604051809103906000f080151561009157600080fd5b600760006101000a81548173ffffffffffffffffffffffffffffffffffffffff021916908373ffffffffffffffffffffffffffffffffffffffff1602179055506100d9610144565b604051809103906000f08015156100ef57600080fd5b600660006101000a81548173ffffffffffffffffffffffffffffffffffffffff021916908373ffffffffffffffffffffffffffffffffffffffff160217905550610154565b6040516105d18061102183390190565b60405161125e806115f283390190565b610ebe806101636000396000f3006060604052600436106100b9576000357c0100000000000000000000000000000000000000000000000000000000900463ffffffff1680625c33e1146100be57806317191704146100eb578063355274ea1461010e57806342966c681461013757806367fc6dea1461015a5780636e66f6e914610183578063811a0a85146101d85780638ba8f9d014610205578063a0712d68146102c0578063a4821719146102e3578063e10d29ee14610301578063eb91172814610356575b600080fd5b34156100c957600080fd5b6100d1610391565b604051808215151515815260200191505060405180910390f35b34156100f657600080fd5b61010c6004808035906020019091905050610412565b005b341561011957600080fd5b6101216105d6565b6040518082815260200191505060405180910390f35b341561014257600080fd5b61015860048080359060200190919050506105e0565b005b341561016557600080fd5b61016d6106bb565b6040518082815260200191505060405180910390f35b341561018e57600080fd5b6101966106c7565b604051808273ffffffffffffffffffffffffffffffffffffffff1673ffffffffffffffffffffffffffffffffffffffff16815260200191505060405180910390f35b34156101e357600080fd5b6101eb6106ed565b604051808215151515815260200191505060405180910390f35b341561021057600080fd5b6102be600480803590602001909190803590602001909190803590602001908201803590602001908080601f0160208091040260200160405190810160405280939291908181526020018383808284378201915050505050509190803590602001908201803590602001908080601f01602080910402602001604051908101604052809392919081815260200183838082843782019150505050505091908035906020019091905050610701565b005b34156102cb57600080fd5b6102e16004808035906020019091905050610973565b005b6102eb610a4e565b6040518082815260200191505060405180910390f35b341561030c57600080fd5b610314610db5565b604051808273ffffffffffffffffffffffffffffffffffffffff1673ffffffffffffffffffffffffffffffffffffffff16815260200191505060405180910390f35b341561036157600080fd5b6103776004808035906020019091905050610ddb565b604051808215151515815260200191505060405180910390f35b600061039b6106ed565b1561040f576000809054906101000a900473ffffffffffffffffffffffffffffffffffffffff1673ffffffffffffffffffffffffffffffffffffffff166108fc3073ffffffffffffffffffffffffffffffffffffffff16319081150290604051600060405180830381858888f19350505050505b90565b61041a6106ed565b15610424576105d3565b600660009054906101000a900473ffffffffffffffffffffffffffffffffffffffff1673ffffffffffffffffffffffffffffffffffffffff166354bbecc46000809054906101000a900473ffffffffffffffffffffffffffffffffffffffff1633846040518463ffffffff167c0100000000000000000000000000000000000000000000000000000000028152600401808473ffffffffffffffffffffffffffffffffffffffff1673ffffffffffffffffffffffffffffffffffffffff1681526020018373ffffffffffffffffffffffffffffffffffffffff1673ffffffffffffffffffffffffffffffffffffffff1681526020018281526020019350505050600060405180830381600087803b151561053d57600080fd5b6102c65a03f1151561054e57600080fd5b50505061056681600454610e0490919063ffffffff16565b507fbb28353e4598c3b9199101a66e0989549b659a59a54d2c27fbb183f1932c8e6d3382604051808373ffffffffffffffffffffffffffffffffffffffff1673ffffffffffffffffffffffffffffffffffffffff1681526020018281526020019250505060405180910390a15b50565b6000600554905090565b600660009054906101000a900473ffffffffffffffffffffffffffffffffffffffff1673ffffffffffffffffffffffffffffffffffffffff1663cf51286a33836040518363ffffffff167c0100000000000000000000000000000000000000000000000000000000028152600401808373ffffffffffffffffffffffffffffffffffffffff1673ffffffffffffffffffffffffffffffffffffffff16815260200182815260200192505050600060405180830381600087803b15156106a457600080fd5b6102c65a03f115156106b557600080fd5b50505050565b60006001544203905090565b600660009054906101000a900473ffffffffffffffffffffffffffffffffffffffff1681565b60006005546106fa6106bb565b1015905090565b836003819055508460028190555042600181905550600660009054906101000a900473ffffffffffffffffffffffffffffffffffffffff1673ffffffffffffffffffffffffffffffffffffffff1663e231551c8484846040518463ffffffff167c0100000000000000000000000000000000000000000000000000000000028152600401808060200180602001848152602001838103835286818151815260200191508051906020019080838360005b838110156107cc5780820151818401526020810190506107b1565b50505050905090810190601f1680156107f95780820380516001836020036101000a031916815260200191505b50838103825285818151815260200191508051906020019080838360005b83811015610832578082015181840152602081019050610817565b50505050905090810190601f16801561085f5780820380516001836020036101000a031916815260200191505b5095505050505050600060405180830381600087803b151561088057600080fd5b6102c65a03f1151561089157600080fd5b505050600660009054906101000a900473ffffffffffffffffffffffffffffffffffffffff1673ffffffffffffffffffffffffffffffffffffffff1663e30443bc33876040518363ffffffff167c0100000000000000000000000000000000000000000000000000000000028152600401808373ffffffffffffffffffffffffffffffffffffffff1673ffffffffffffffffffffffffffffffffffffffff16815260200182815260200192505050600060405180830381600087803b151561095857600080fd5b6102c65a03f1151561096957600080fd5b5050505050505050565b600660009054906101000a900473ffffffffffffffffffffffffffffffffffffffff1673ffffffffffffffffffffffffffffffffffffffff16636d0f94ee33836040518363ffffffff167c0100000000000000000000000000000000000000000000000000000000028152600401808373ffffffffffffffffffffffffffffffffffffffff1673ffffffffffffffffffffffffffffffffffffffff16815260200182815260200192505050600060405180830381600087803b1515610a3757600080fd5b6102c65a03f11515610a4857600080fd5b50505050565b60008060035434029050610a606106ed565b158015610b4057503373ffffffffffffffffffffffffffffffffffffffff16600760009054906101000a900473ffffffffffffffffffffffffffffffffffffffff1673ffffffffffffffffffffffffffffffffffffffff16631e2231436000604051602001526040518163ffffffff167c0100000000000000000000000000000000000000000000000000000000028152600401602060405180830381600087803b1515610b0d57600080fd5b6102c65a03f11515610b1e57600080fd5b5050506040518051905073ffffffffffffffffffffffffffffffffffffffff16145b8015610bf15750600760009054906101000a900473ffffffffffffffffffffffffffffffffffffffff1673ffffffffffffffffffffffffffffffffffffffff16637fecd5386000604051602001526040518163ffffffff167c0100000000000000000000000000000000000000000000000000000000028152600401602060405180830381600087803b1515610bd557600080fd5b6102c65a03f11515610be657600080fd5b505050604051805190505b15610dac57600660009054906101000a900473ffffffffffffffffffffffffffffffffffffffff1673ffffffffffffffffffffffffffffffffffffffff1663475e980d6000809054906101000a900473ffffffffffffffffffffffffffffffffffffffff1633846040518463ffffffff167c0100000000000000000000000000000000000000000000000000000000028152600401808473ffffffffffffffffffffffffffffffffffffffff1673ffffffffffffffffffffffffffffffffffffffff1681526020018373ffffffffffffffffffffffffffffffffffffffff1673ffffffffffffffffffffffffffffffffffffffff1681526020018281526020019350505050600060405180830381600087803b1515610d0f57600080fd5b6102c65a03f11515610d2057600080fd5b505050610d3881600454610e1d90919063ffffffff16565b507f2499a5330ab0979cc612135e7883ebc3cd5c9f7a8508f042540c34723348f6323382604051808373ffffffffffffffffffffffffffffffffffffffff1673ffffffffffffffffffffffffffffffffffffffff1681526020018281526020019250505060405180910390a1809150610db1565b600091505b5090565b600760009054906101000a900473ffffffffffffffffffffffffffffffffffffffff1681565b6000610de5610e3b565b15610dfa578160058190555060019050610dff565b600090505b919050565b6000828211151515610e1257fe5b818303905092915050565b6000808284019050838110151515610e3157fe5b8091505092915050565b60008060009054906101000a900473ffffffffffffffffffffffffffffffffffffffff1673ffffffffffffffffffffffffffffffffffffffff163373ffffffffffffffffffffffffffffffffffffffff16149050905600a165627a7a72305820aa9a92035d34bc97901bc8251d860f65136a332e4e3b38be1865bd35c73251670029606060405260056000806101000a81548160ff021916908360ff1602179055506032600755341561002f57600080fd5b600060068190555061058b806100466000396000f30060606040526004361061008e576000357c0100000000000000000000000000000000000000000000000000000000900463ffffffff1680631e223143146100935780633e3c9eae146100e85780634aca1b9b146101115780637fecd5381461013e5780638f807f6b1461016b578063ad7d59fc146101a4578063e0c6190d146101cd578063f2a75fe4146101e2575b600080fd5b341561009e57600080fd5b6100a661020f565b604051808273ffffffffffffffffffffffffffffffffffffffff1673ffffffffffffffffffffffffffffffffffffffff16815260200191505060405180910390f35b34156100f357600080fd5b6100fb610248565b6040518082815260200191505060405180910390f35b341561011c57600080fd5b610124610252565b604051808215151515815260200191505060405180910390f35b341561014957600080fd5b610151610262565b604051808215151515815260200191505060405180910390f35b341561017657600080fd5b6101a2600480803573ffffffffffffffffffffffffffffffffffffffff16906020019091905050610274565b005b34156101af57600080fd5b6101b76102ff565b6040518082815260200191505060405180910390f35b34156101d857600080fd5b6101e0610389565b005b34156101ed57600080fd5b6101f56103a1565b604051808215151515815260200191505060405180910390f35b60006001600060058110151561022157fe5b0160009054906101000a900473ffffffffffffffffffffffffffffffffffffffff16905090565b6000600654905090565b6000600754600854420311905090565b6000600161026e610248565b11905090565b6005600654101515610285576102fc565b6000600654141561029857426008819055505b8060016006546005811015156102aa57fe5b0160006101000a81548173ffffffffffffffffffffffffffffffffffffffff021916908373ffffffffffffffffffffffffffffffffffffffff1602179055506006600081548092919060010191905055505b50565b600080600090506005811015610384573373ffffffffffffffffffffffffffffffffffffffff1660018260058110151561033557fe5b0160009054906101000a900473ffffffffffffffffffffffffffffffffffffffff1673ffffffffffffffffffffffffffffffffffffffff16141561037b57809150610385565b60059150610385565b5b5090565b610391610252565b1561039f5761039e6103ad565b5b565b60008060065414905090565b6000806006541115156103bf5761055c565b7f981dc52795d197fa56865619edbd5b7e83fb2865f0a6a7e4d618aa2ec39aee40600160006005811015156103f057fe5b0160009054906101000a900473ffffffffffffffffffffffffffffffffffffffff16604051808273ffffffffffffffffffffffffffffffffffffffff1673ffffffffffffffffffffffffffffffffffffffff16815260200191505060405180910390a1600190505b60058110156104ef5760018160058110151561047057fe5b0160009054906101000a900473ffffffffffffffffffffffffffffffffffffffff1660018083036005811015156104a357fe5b0160006101000a81548173ffffffffffffffffffffffffffffffffffffffff021916908373ffffffffffffffffffffffffffffffffffffffff1602179055508080600101915050610458565b426008819055506000600160065460058110151561050957fe5b0160006101000a81548173ffffffffffffffffffffffffffffffffffffffff021916908373ffffffffffffffffffffffffffffffffffffffff160217905550600660008154809291906001900391905055505b505600a165627a7a72305820100a8d2a005afe30daff622f500fd75831a0f0aa944d6ab93c8507ba4540bbdf00296060604052341561000f57600080fd5b6112408061001e6000396000f3006060604052600436106100f1576000357c0100000000000000000000000000000000000000000000000000000000900463ffffffff16806306fdde03146100f6578063095ea7b31461018457806318160ddd146101de57806323b872dd1461020757806327e235e314610280578063313ce567146102cd578063475e980d146102f657806354bbecc4146103575780636d0f94ee146103b857806370a08231146103fa57806395d89b41146104475780639dc29fac146104d5578063a9059cbb14610517578063cf51286a14610571578063dd62ed3e146105b3578063e231551c1461061f578063e30443bc146106c8575b600080fd5b341561010157600080fd5b61010961070a565b6040518080602001828103825283818151815260200191508051906020019080838360005b8381101561014957808201518184015260208101905061012e565b50505050905090810190601f1680156101765780820380516001836020036101000a031916815260200191505b509250505060405180910390f35b341561018f57600080fd5b6101c4600480803573ffffffffffffffffffffffffffffffffffffffff169060200190919080359060200190919050506107a8565b604051808215151515815260200191505060405180910390f35b34156101e957600080fd5b6101f161089a565b6040518082815260200191505060405180910390f35b341561021257600080fd5b610266600480803573ffffffffffffffffffffffffffffffffffffffff1690602001909190803573ffffffffffffffffffffffffffffffffffffffff169060200190919080359060200190919050506108a4565b604051808215151515815260200191505060405180910390f35b341561028b57600080fd5b6102b7600480803573ffffffffffffffffffffffffffffffffffffffff16906020019091905050610a40565b6040518082815260200191505060405180910390f35b34156102d857600080fd5b6102e0610a58565b6040518082815260200191505060405180910390f35b341561030157600080fd5b610355600480803573ffffffffffffffffffffffffffffffffffffffff1690602001909190803573ffffffffffffffffffffffffffffffffffffffff16906020019091908035906020019091905050610a5e565b005b341561036257600080fd5b6103b6600480803573ffffffffffffffffffffffffffffffffffffffff1690602001909190803573ffffffffffffffffffffffffffffffffffffffff16906020019091908035906020019091905050610b09565b005b34156103c357600080fd5b6103f8600480803573ffffffffffffffffffffffffffffffffffffffff16906020019091908035906020019091905050610bb4565b005b341561040557600080fd5b610431600480803573ffffffffffffffffffffffffffffffffffffffff16906020019091905050610c21565b6040518082815260200191505060405180910390f35b341561045257600080fd5b61045a610c6a565b6040518080602001828103825283818151815260200191508051906020019080838360005b8381101561049a57808201518184015260208101905061047f565b50505050905090810190601f1680156104c75780820380516001836020036101000a031916815260200191505b509250505060405180910390f35b34156104e057600080fd5b610515600480803573ffffffffffffffffffffffffffffffffffffffff16906020019091908035906020019091905050610d08565b005b341561052257600080fd5b610557600480803573ffffffffffffffffffffffffffffffffffffffff16906020019091908035906020019091905050610e27565b604051808215151515815260200191505060405180910390f35b341561057c57600080fd5b6105b1600480803573ffffffffffffffffffffffffffffffffffffffff16906020019091908035906020019091905050610fc2565b005b34156105be57600080fd5b610609600480803573ffffffffffffffffffffffffffffffffffffffff1690602001909190803573ffffffffffffffffffffffffffffffffffffffff1690602001909190505061102f565b6040518082815260200191505060405180910390f35b341561062a57600080fd5b6106c6600480803590602001908201803590602001908080601f0160208091040260200160405190810160405280939291908181526020018383808284378201915050505050509190803590602001908201803590602001908080601f016020809104026020016040519081016040528093929190818152602001838380828437820191505050505050919080359060200190919050506110b6565b005b34156106d357600080fd5b610708600480803573ffffffffffffffffffffffffffffffffffffffff169060200190919080359060200190919050506110f0565b005b60028054600181600116156101000203166002900480601f0160208091040260200160405190810160405280929190818152602001828054600181600116156101000203166002900480156107a05780601f10610775576101008083540402835291602001916107a0565b820191906000526020600020905b81548152906001019060200180831161078357829003601f168201915b505050505081565b600081600660003373ffffffffffffffffffffffffffffffffffffffff1673ffffffffffffffffffffffffffffffffffffffff16815260200190815260200160002060008573ffffffffffffffffffffffffffffffffffffffff1673ffffffffffffffffffffffffffffffffffffffff168152602001908152602001600020819055508273ffffffffffffffffffffffffffffffffffffffff163373ffffffffffffffffffffffffffffffffffffffff167f8c5be1e5ebec7d5bd14f71427d1e84f3dd0314c0f7b2291e5b200ac8c7c3b925846040518082815260200191505060405180910390a36001905092915050565b6000600454905090565b60006108f882600560008773ffffffffffffffffffffffffffffffffffffffff1673ffffffffffffffffffffffffffffffffffffffff1681526020019081526020016000205461113890919063ffffffff16565b600560008673ffffffffffffffffffffffffffffffffffffffff1673ffffffffffffffffffffffffffffffffffffffff1681526020019081526020016000208190555061098d82600560008673ffffffffffffffffffffffffffffffffffffffff1673ffffffffffffffffffffffffffffffffffffffff1681526020019081526020016000205461115190919063ffffffff16565b600560008573ffffffffffffffffffffffffffffffffffffffff1673ffffffffffffffffffffffffffffffffffffffff168152602001908152602001600020819055508273ffffffffffffffffffffffffffffffffffffffff168473ffffffffffffffffffffffffffffffffffffffff167fddf252ad1be2c89b69c2b068fc378daa952ba7f163c4a11628f55a4df523b3ef846040518082815260200191505060405180910390a3600190509392505050565b60056020528060005260406000206000915090505481565b60035481565b610ab081600560008673ffffffffffffffffffffffffffffffffffffffff1673ffffffffffffffffffffffffffffffffffffffff1681526020019081526020016000205461113890919063ffffffff16565b50610b0381600560008573ffffffffffffffffffffffffffffffffffffffff1673ffffffffffffffffffffffffffffffffffffffff1681526020019081526020016000205461115190919063ffffffff16565b50505050565b610b5b81600560008573ffffffffffffffffffffffffffffffffffffffff1673ffffffffffffffffffffffffffffffffffffffff1681526020019081526020016000205461113890919063ffffffff16565b50610bae81600560008673ffffffffffffffffffffffffffffffffffffffff1673ffffffffffffffffffffffffffffffffffffffff1681526020019081526020016000205461115190919063ffffffff16565b50505050565b610c0681600560008573ffffffffffffffffffffffffffffffffffffffff1673ffffffffffffffffffffffffffffffffffffffff1681526020019081526020016000205461115190919063ffffffff16565b50610c1c8160045461115190919063ffffffff16565b505050565b6000600560008373ffffffffffffffffffffffffffffffffffffffff1673ffffffffffffffffffffffffffffffffffffffff168152602001908152602001600020549050919050565b60018054600181600116156101000203166002900480601f016020809104026020016040519081016040528092919081815260200182805460018160011615610100020316600290048015610d005780601f10610cd557610100808354040283529160200191610d00565b820191906000526020600020905b815481529060010190602001808311610ce357829003601f168201915b505050505081565b610d5a81600560008573ffffffffffffffffffffffffffffffffffffffff1673ffffffffffffffffffffffffffffffffffffffff1681526020019081526020016000205461113890919063ffffffff16565b600560008473ffffffffffffffffffffffffffffffffffffffff1673ffffffffffffffffffffffffffffffffffffffff16815260200190815260200160002081905550610db28160045461113890919063ffffffff16565b6004819055507f696de425f79f4a40bc6d2122ca50507f0efbeabbff86a84871b7196ab8ea8df78282604051808373ffffffffffffffffffffffffffffffffffffffff1673ffffffffffffffffffffffffffffffffffffffff1681526020018281526020019250505060405180910390a15050565b6000610e7b82600560003373ffffffffffffffffffffffffffffffffffffffff1673ffffffffffffffffffffffffffffffffffffffff1681526020019081526020016000205461113890919063ffffffff16565b600560003373ffffffffffffffffffffffffffffffffffffffff1673ffffffffffffffffffffffffffffffffffffffff16815260200190815260200160002081905550610f1082600560008673ffffffffffffffffffffffffffffffffffffffff1673ffffffffffffffffffffffffffffffffffffffff1681526020019081526020016000205461115190919063ffffffff16565b600560008573ffffffffffffffffffffffffffffffffffffffff1673ffffffffffffffffffffffffffffffffffffffff168152602001908152602001600020819055508273ffffffffffffffffffffffffffffffffffffffff163373ffffffffffffffffffffffffffffffffffffffff167fddf252ad1be2c89b69c2b068fc378daa952ba7f163c4a11628f55a4df523b3ef846040518082815260200191505060405180910390a36001905092915050565b61101481600560008573ffffffffffffffffffffffffffffffffffffffff1673ffffffffffffffffffffffffffffffffffffffff1681526020019081526020016000205461113890919063ffffffff16565b5061102a8160045461113890919063ffffffff16565b505050565b6000600660008473ffffffffffffffffffffffffffffffffffffffff1673ffffffffffffffffffffffffffffffffffffffff16815260200190815260200160002060008373ffffffffffffffffffffffffffffffffffffffff1673ffffffffffffffffffffffffffffffffffffffff16815260200190815260200160002054905092915050565b82600190805190602001906110cc92919061116f565b5081600290805190602001906110e392919061116f565b5080600381905550505050565b80600560008473ffffffffffffffffffffffffffffffffffffffff1673ffffffffffffffffffffffffffffffffffffffff168152602001908152602001600020819055505050565b600082821115151561114657fe5b818303905092915050565b600080828401905083811015151561116557fe5b8091505092915050565b828054600181600116156101000203166002900490600052602060002090601f016020900481019282601f106111b057805160ff19168380011785556111de565b828001600101855582156111de579182015b828111156111dd5782518255916020019190600101906111c2565b5b5090506111eb91906111ef565b5090565b61121191905b8082111561120d5760008160009055506001016111f5565b5090565b905600a165627a7a72305820bd64b9904ba37b26fd225d3ad842c76175e4dc6d8d4b33e4def1d27e4925d1e50029",
  "source": "pragma solidity ^0.4.15;\n\nimport './Queue.sol';\nimport './Token.sol';\nimport './utils/SafeMath.sol';\n\n/**\n * @title Crowdsale\n * @dev Contract that deploys `Token.sol`\n * Is timelocked, manages buyer queue, updates balances on `Token.sol`\n */\n\ncontract Crowdsale {\n\tusing SafeMath for uint;\n\n  address owner;\n  uint startTime;\n  uint initAmount;\n  uint tokensPerWei;\n  uint tokensSold;\n  uint timeCap = (2**256 - 1);\n  Token public tokenReward;\n  Queue public queue;\n\n  function Crowdsale() public {\n    owner = msg.sender;\n    queue = new Queue();\n\t\ttokenReward = new Token();\n  }\n\n\tfunction SetDetails(uint _initAmount, uint rate, string symbol, string name, uint decimals) public {\n\t\ttokensPerWei = rate;\n    initAmount = _initAmount;\n    startTime = now;\n\t\ttokenReward.SetDetails(symbol, name, decimals);\n\t\ttokenReward.setBalance(msg.sender, _initAmount);\n\t}\n\n  function mint(uint amount) {\n    tokenReward.mintThing(msg.sender, amount);\n  }\n\n  function burn(uint amount) {\n    tokenReward.burnThing(msg.sender, amount);\n  }\n\n  function buyToken() public payable returns (uint amount) {\n    uint _amount = msg.value * tokensPerWei;\n    if (!saleComplete() && queue.getFirst() == msg.sender &&\n    queue.isWaiting())\n        {\n            tokenReward.buyThing(owner, msg.sender, _amount);\n            tokensSold.add(_amount);\n            Purchase(msg.sender, _amount);\n            return _amount;\n        }\n    return 0;\n  }\n\n  function refundToken(uint amount) {\n    if (saleComplete()) {\n      return;\n    }\n    tokenReward.refundThing(owner, msg.sender, amount);\n    tokensSold.sub(amount);\n    Refund(msg.sender, amount);\n  }\n\n  function setTimeCap(uint cap) returns(bool) {\n    if (isOwner()) {\n      timeCap = cap;\n      return true;\n    }\n    return false;\n  }\n\n\tfunction cap() public returns (uint) {\n\t\treturn timeCap;\n\t}\n\n  function isOwner() private returns(bool) {\n    return msg.sender == owner;\n  }\n\n  function timeSinceStart() returns(uint) {\n    return now - startTime;\n  }\n\n  function saleComplete() returns(bool) {\n    return timeSinceStart() >= timeCap;\n  }\n\n  function receiveFunds() returns(bool) {\n    if (saleComplete()) {\n      owner.send(this.balance);\n    }\n  }\n\n  event Purchase(address buyer, uint tokens);\n  event Refund(address addr, uint tokens);\n}\n",
  "sourcePath": "/Users/felipe_campos/blockchain-dev/sp18-midterm-p1/contracts/Crowdsale.sol",
  "compiler": {
    "name": "solc",
    "version": "0.4.19+commit.c4cbbb05.Emscripten.clang"
  },
  "schemaVersion": "1.0.1",
  "updatedAt": "2018-03-10T05:40:23.653Z"
}