{
  "contractName": "Queue",
  "abi": [
    {
      "inputs": [],
      "payable": false,
      "stateMutability": "nonpayable",
      "type": "constructor"
    },
    {
      "anonymous": false,
      "inputs": [
        {
          "indexed": false,
          "name": "ejected",
          "type": "address"
        }
      ],
      "name": "Ejected",
      "type": "event"
    },
    {
      "constant": true,
      "inputs": [],
      "name": "qsize",
      "outputs": [
        {
          "name": "",
          "type": "uint256"
        }
      ],
      "payable": false,
      "stateMutability": "view",
      "type": "function"
    },
    {
      "constant": true,
      "inputs": [],
      "name": "empty",
      "outputs": [
        {
          "name": "",
          "type": "bool"
        }
      ],
      "payable": false,
      "stateMutability": "view",
      "type": "function"
    },
    {
      "constant": true,
      "inputs": [],
      "name": "getFirst",
      "outputs": [
        {
          "name": "",
          "type": "address"
        }
      ],
      "payable": false,
      "stateMutability": "view",
      "type": "function"
    },
    {
      "constant": true,
      "inputs": [],
      "name": "checkPlace",
      "outputs": [
        {
          "name": "",
          "type": "uint256"
        }
      ],
      "payable": false,
      "stateMutability": "view",
      "type": "function"
    },
    {
      "constant": false,
      "inputs": [],
      "name": "timeLimitExceeded",
      "outputs": [
        {
          "name": "",
          "type": "bool"
        }
      ],
      "payable": false,
      "stateMutability": "nonpayable",
      "type": "function"
    },
    {
      "constant": false,
      "inputs": [],
      "name": "isWaiting",
      "outputs": [
        {
          "name": "",
          "type": "bool"
        }
      ],
      "payable": false,
      "stateMutability": "nonpayable",
      "type": "function"
    },
    {
      "constant": false,
      "inputs": [],
      "name": "checkTime",
      "outputs": [],
      "payable": false,
      "stateMutability": "nonpayable",
      "type": "function"
    },
    {
      "constant": false,
      "inputs": [
        {
          "name": "addr",
          "type": "address"
        }
      ],
      "name": "enqueue",
      "outputs": [],
      "payable": false,
      "stateMutability": "nonpayable",
      "type": "function"
    }
  ],
  "bytecode": "0x606060405260056000806101000a81548160ff021916908360ff1602179055506032600755341561002f57600080fd5b600060068190555061058b806100466000396000f30060606040526004361061008e576000357c0100000000000000000000000000000000000000000000000000000000900463ffffffff1680631e223143146100935780633e3c9eae146100e85780634aca1b9b146101115780637fecd5381461013e5780638f807f6b1461016b578063ad7d59fc146101a4578063e0c6190d146101cd578063f2a75fe4146101e2575b600080fd5b341561009e57600080fd5b6100a661020f565b604051808273ffffffffffffffffffffffffffffffffffffffff1673ffffffffffffffffffffffffffffffffffffffff16815260200191505060405180910390f35b34156100f357600080fd5b6100fb610248565b6040518082815260200191505060405180910390f35b341561011c57600080fd5b610124610252565b604051808215151515815260200191505060405180910390f35b341561014957600080fd5b610151610262565b604051808215151515815260200191505060405180910390f35b341561017657600080fd5b6101a2600480803573ffffffffffffffffffffffffffffffffffffffff16906020019091905050610274565b005b34156101af57600080fd5b6101b76102ff565b6040518082815260200191505060405180910390f35b34156101d857600080fd5b6101e0610389565b005b34156101ed57600080fd5b6101f56103a1565b604051808215151515815260200191505060405180910390f35b60006001600060058110151561022157fe5b0160009054906101000a900473ffffffffffffffffffffffffffffffffffffffff16905090565b6000600654905090565b6000600754600854420311905090565b6000600161026e610248565b11905090565b6005600654101515610285576102fc565b6000600654141561029857426008819055505b8060016006546005811015156102aa57fe5b0160006101000a81548173ffffffffffffffffffffffffffffffffffffffff021916908373ffffffffffffffffffffffffffffffffffffffff1602179055506006600081548092919060010191905055505b50565b600080600090506005811015610384573373ffffffffffffffffffffffffffffffffffffffff1660018260058110151561033557fe5b0160009054906101000a900473ffffffffffffffffffffffffffffffffffffffff1673ffffffffffffffffffffffffffffffffffffffff16141561037b57809150610385565b60059150610385565b5b5090565b610391610252565b1561039f5761039e6103ad565b5b565b60008060065414905090565b6000806006541115156103bf5761055c565b7f981dc52795d197fa56865619edbd5b7e83fb2865f0a6a7e4d618aa2ec39aee40600160006005811015156103f057fe5b0160009054906101000a900473ffffffffffffffffffffffffffffffffffffffff16604051808273ffffffffffffffffffffffffffffffffffffffff1673ffffffffffffffffffffffffffffffffffffffff16815260200191505060405180910390a1600190505b60058110156104ef5760018160058110151561047057fe5b0160009054906101000a900473ffffffffffffffffffffffffffffffffffffffff1660018083036005811015156104a357fe5b0160006101000a81548173ffffffffffffffffffffffffffffffffffffffff021916908373ffffffffffffffffffffffffffffffffffffffff1602179055508080600101915050610458565b426008819055506000600160065460058110151561050957fe5b0160006101000a81548173ffffffffffffffffffffffffffffffffffffffff021916908373ffffffffffffffffffffffffffffffffffffffff160217905550600660008154809291906001900391905055505b505600a165627a7a72305820100a8d2a005afe30daff622f500fd75831a0f0aa944d6ab93c8507ba4540bbdf0029",
  "source": "pragma solidity ^0.4.15;\n\n/**\n * @title Queue\n * @dev Data structure contract used in `Crowdsale.sol`\n * Allows buyers to line up on a first-in-first-out basis\n * See this example: http://interactivepython.org/courselib/static/pythonds/BasicDS/ImplementingaQueueinPython.html\n */\n\ncontract Queue {\n\t/* State variables */\n\tuint8 size = 5;\n\taddress[5] fifo;\n\tuint current;\n\tuint timeLimit = 50;\n\tuint headCheckIn;\n\n\t/* Add events */\n\t// YOUR CODE HERE\n\n\t/* Add constructor */\n\tfunction Queue() public {\n\t\tcurrent = 0;\n\t}\n\n\t/* Returns the number of people waiting in line */\n\tfunction qsize() constant returns(uint) {\n\t\treturn current;\n\t}\n\n\t/* Returns whether the queue is empty or not */\n\tfunction empty() constant returns(bool) {\n\t\treturn current == 0;\n\t}\n\n\t/* Returns the address of the person in the front of the queue */\n\tfunction getFirst() constant returns(address) {\n\t\treturn fifo[0];\n\t}\n\n\t/* Allows `msg.sender` to check their position in the queue */\n\tfunction checkPlace() constant returns(uint) {\n\t\tfor (uint x = 0; x < fifo.length; x++) {\n\t\t\tif (fifo[x] == msg.sender) {\n\t\t\t\treturn x;\n\t\t\t}\n\t\t\treturn fifo.length;\n\t\t}\n\t}\n\n\tfunction timeLimitExceeded() returns(bool) {\n\t\treturn now - headCheckIn > timeLimit;\n\t}\n\n\tfunction isWaiting() returns(bool) {\n\t\treturn qsize() > 1;\n\t}\n\n\t/* Allows anyone to expel the first person in line if their time\n\t * limit is up\n\t */\n\tfunction checkTime() { // TODO: ask difference between checkTime and dequeue\n\t\tif (timeLimitExceeded()) {\n\t\t\tdequeue();\n\t\t}\n\t}\n\n\t/* Removes the first person in line; either when their time is up or when\n\t * they are done with their purchase\n\t */\n\tfunction dequeue() private {\n\t\tif (current <= 0) {\n\t\t\treturn;\n\t\t}\n\t\tEjected(fifo[0]);\n\t\tfor (uint x = 1; x < fifo.length; x++) {\n\t\t\tfifo[x - 1] = fifo[x];\n\t\t}\n\t\theadCheckIn = now;\n\t\tfifo[current] = 0;\n\t\tcurrent--;\n\t}\n\n\t/* Places `addr` in the first empty position in the queue */\n\tfunction enqueue(address addr) {\n\t\tif (current >= fifo.length) {\n\t\t\treturn;\n\t\t}\n\t\tif (current == 0) {\n\t\t\theadCheckIn = now;\n\t\t}\n\t\tfifo[current] = addr;\n\t\tcurrent++;\n\t}\n\n\tevent Ejected(address ejected);\n}\n",
  "sourcePath": "/Users/felipe_campos/blockchain-dev/sp18-midterm-p1/contracts/Queue.sol",
  "compiler": {
    "name": "solc",
    "version": "0.4.19+commit.c4cbbb05.Emscripten.clang"
  },
  "schemaVersion": "1.0.1",
  "updatedAt": "2018-03-10T05:40:23.649Z"
}